{
  "_format": "hh-sol-artifact-1",
  "contractName": "SubsidyDisbursement",
  "sourceName": "contracts/SubsidyDisbursement.sol",
  "abi": [
    {
      "inputs": [],
      "stateMutability": "nonpayable",
      "type": "constructor"
    },
    {
      "anonymous": false,
      "inputs": [
        {
          "indexed": true,
          "internalType": "address",
          "name": "producerAddress",
          "type": "address"
        },
        {
          "indexed": false,
          "internalType": "uint256",
          "name": "milestone",
          "type": "uint256"
        },
        {
          "indexed": false,
          "internalType": "uint256",
          "name": "subsidyAmount",
          "type": "uint256"
        }
      ],
      "name": "MilestoneSet",
      "type": "event"
    },
    {
      "anonymous": false,
      "inputs": [
        {
          "indexed": true,
          "internalType": "address",
          "name": "producerAddress",
          "type": "address"
        }
      ],
      "name": "ProducerRegistered",
      "type": "event"
    },
    {
      "anonymous": false,
      "inputs": [
        {
          "indexed": true,
          "internalType": "address",
          "name": "producerAddress",
          "type": "address"
        },
        {
          "indexed": false,
          "internalType": "uint256",
          "name": "amount",
          "type": "uint256"
        }
      ],
      "name": "SubsidyReleased",
      "type": "event"
    },
    {
      "inputs": [],
      "name": "government",
      "outputs": [
        {
          "internalType": "address",
          "name": "",
          "type": "address"
        }
      ],
      "stateMutability": "view",
      "type": "function"
    },
    {
      "inputs": [
        {
          "internalType": "address",
          "name": "",
          "type": "address"
        }
      ],
      "name": "producers",
      "outputs": [
        {
          "internalType": "bool",
          "name": "isRegistered",
          "type": "bool"
        },
        {
          "internalType": "uint256",
          "name": "milestone",
          "type": "uint256"
        },
        {
          "internalType": "uint256",
          "name": "subsidyAmount",
          "type": "uint256"
        },
        {
          "internalType": "bool",
          "name": "milestoneMet",
          "type": "bool"
        }
      ],
      "stateMutability": "view",
      "type": "function"
    },
    {
      "inputs": [
        {
          "internalType": "address",
          "name": "producerAddress",
          "type": "address"
        }
      ],
      "name": "registerProducer",
      "outputs": [],
      "stateMutability": "nonpayable",
      "type": "function"
    },
    {
      "inputs": [
        {
          "internalType": "address",
          "name": "producerAddress",
          "type": "address"
        },
        {
          "internalType": "uint256",
          "name": "milestone",
          "type": "uint256"
        },
        {
          "internalType": "uint256",
          "name": "subsidyAmount",
          "type": "uint256"
        }
      ],
      "name": "setMilestone",
      "outputs": [],
      "stateMutability": "nonpayable",
      "type": "function"
    },
    {
      "inputs": [
        {
          "internalType": "address",
          "name": "producerAddress",
          "type": "address"
        },
        {
          "internalType": "uint256",
          "name": "actualVolume",
          "type": "uint256"
        }
      ],
      "name": "verifyAndRelease",
      "outputs": [],
      "stateMutability": "nonpayable",
      "type": "function"
    },
    {
      "inputs": [],
      "name": "withdraw",
      "outputs": [],
      "stateMutability": "nonpayable",
      "type": "function"
    },
    {
      "stateMutability": "payable",
      "type": "receive"
    }
  ],
  "bytecode": "0x608060405234801561001057600080fd5b50336000806101000a81548173ffffffffffffffffffffffffffffffffffffffff021916908373ffffffffffffffffffffffffffffffffffffffff160217905550610cd6806100606000396000f3fe6080604052600436106100595760003560e01c806326324eff146100655780632672f526146100a55780633049d481146100d05780633c1df4d4146100f95780633c530ace146101225780633ccfd60b1461014b57610060565b3661006057005b600080fd5b34801561007157600080fd5b5061008c600480360381019061008791906108ee565b610162565b60405161009c9493929190610b10565b60405180910390f35b3480156100b157600080fd5b506100ba6101ac565b6040516100c79190610af5565b60405180910390f35b3480156100dc57600080fd5b506100f760048036038101906100f29190610917565b6101d0565b005b34801561010557600080fd5b50610120600480360381019061011b9190610953565b61040f565b005b34801561012e57600080fd5b50610149600480360381019061014491906108ee565b61060f565b005b34801561015757600080fd5b506101606107cd565b005b60016020528060005260406000206000915090508060000160009054906101000a900460ff16908060010154908060020154908060030160009054906101000a900460ff16905084565b60008054906101000a900473ffffffffffffffffffffffffffffffffffffffff1681565b60008054906101000a900473ffffffffffffffffffffffffffffffffffffffff1673ffffffffffffffffffffffffffffffffffffffff163373ffffffffffffffffffffffffffffffffffffffff161461025e576040517f08c379a000000000000000000000000000000000000000000000000000000000815260040161025590610b75565b60405180910390fd5b6000600160008473ffffffffffffffffffffffffffffffffffffffff1673ffffffffffffffffffffffffffffffffffffffff16815260200190815260200160002090508060000160009054906101000a900460ff166102f2576040517f08c379a00000000000000000000000000000000000000000000000000000000081526004016102e990610bb5565b60405180910390fd5b8060030160009054906101000a900460ff1615610344576040517f08c379a000000000000000000000000000000000000000000000000000000000815260040161033b90610b95565b60405180910390fd5b8060010154821061040a5760018160030160006101000a81548160ff0219169083151502179055508273ffffffffffffffffffffffffffffffffffffffff166108fc82600201549081150290604051600060405180830381858888f193505050501580156103b6573d6000803e3d6000fd5b508273ffffffffffffffffffffffffffffffffffffffff167fa05261fef806b32908b254f70fe1ce717dff18a6668bb5d326ff1d3e365f722982600201546040516104019190610bd5565b60405180910390a25b505050565b60008054906101000a900473ffffffffffffffffffffffffffffffffffffffff1673ffffffffffffffffffffffffffffffffffffffff163373ffffffffffffffffffffffffffffffffffffffff161461049d576040517f08c379a000000000000000000000000000000000000000000000000000000000815260040161049490610b75565b60405180910390fd5b600160008473ffffffffffffffffffffffffffffffffffffffff1673ffffffffffffffffffffffffffffffffffffffff16815260200190815260200160002060000160009054906101000a900460ff1661052c576040517f08c379a000000000000000000000000000000000000000000000000000000000815260040161052390610bb5565b60405180910390fd5b81600160008573ffffffffffffffffffffffffffffffffffffffff1673ffffffffffffffffffffffffffffffffffffffff1681526020019081526020016000206001018190555080600160008573ffffffffffffffffffffffffffffffffffffffff1673ffffffffffffffffffffffffffffffffffffffff168152602001908152602001600020600201819055508273ffffffffffffffffffffffffffffffffffffffff167f576a4202803d4036012b503de44ee8646c0634dbcc81262bda3a83e3c922c7858383604051610602929190610bf0565b60405180910390a2505050565b60008054906101000a900473ffffffffffffffffffffffffffffffffffffffff1673ffffffffffffffffffffffffffffffffffffffff163373ffffffffffffffffffffffffffffffffffffffff161461069d576040517f08c379a000000000000000000000000000000000000000000000000000000000815260040161069490610b75565b60405180910390fd5b600160008273ffffffffffffffffffffffffffffffffffffffff1673ffffffffffffffffffffffffffffffffffffffff16815260200190815260200160002060000160009054906101000a900460ff161561072d576040517f08c379a000000000000000000000000000000000000000000000000000000000815260040161072490610b55565b60405180910390fd5b60018060008373ffffffffffffffffffffffffffffffffffffffff1673ffffffffffffffffffffffffffffffffffffffff16815260200190815260200160002060000160006101000a81548160ff0219169083151502179055508073ffffffffffffffffffffffffffffffffffffffff167f523dd2bfefd64323042504bb6d7886a60e66bef86e7379de81fc45837853c3fa60405160405180910390a250565b60008054906101000a900473ffffffffffffffffffffffffffffffffffffffff1673ffffffffffffffffffffffffffffffffffffffff163373ffffffffffffffffffffffffffffffffffffffff161461085b576040517f08c379a000000000000000000000000000000000000000000000000000000000815260040161085290610b75565b60405180910390fd5b60008054906101000a900473ffffffffffffffffffffffffffffffffffffffff1673ffffffffffffffffffffffffffffffffffffffff166108fc479081150290604051600060405180830381858888f193505050501580156108c1573d6000803e3d6000fd5b50565b6000813590506108d381610c72565b92915050565b6000813590506108e881610c89565b92915050565b60006020828403121561090057600080fd5b600061090e848285016108c4565b91505092915050565b6000806040838503121561092a57600080fd5b6000610938858286016108c4565b9250506020610949858286016108d9565b9150509250929050565b60008060006060848603121561096857600080fd5b6000610976868287016108c4565b9350506020610987868287016108d9565b9250506040610998868287016108d9565b9150509250925092565b6109ab81610c2a565b82525050565b6109ba81610c3c565b82525050565b60006109cd601b83610c19565b91507f50726f647563657220616c7265616479207265676973746572656400000000006000830152602082019050919050565b6000610a0d602683610c19565b91507f4f6e6c7920676f7665726e6d656e742063616e2063616c6c207468697320667560008301527f6e6374696f6e00000000000000000000000000000000000000000000000000006020830152604082019050919050565b6000610a73601583610c19565b91507f4d696c6573746f6e6520616c7265616479206d657400000000000000000000006000830152602082019050919050565b6000610ab3601783610c19565b91507f50726f6475636572206e6f7420726567697374657265640000000000000000006000830152602082019050919050565b610aef81610c68565b82525050565b6000602082019050610b0a60008301846109a2565b92915050565b6000608082019050610b2560008301876109b1565b610b326020830186610ae6565b610b3f6040830185610ae6565b610b4c60608301846109b1565b95945050505050565b60006020820190508181036000830152610b6e816109c0565b9050919050565b60006020820190508181036000830152610b8e81610a00565b9050919050565b60006020820190508181036000830152610bae81610a66565b9050919050565b60006020820190508181036000830152610bce81610aa6565b9050919050565b6000602082019050610bea6000830184610ae6565b92915050565b6000604082019050610c056000830185610ae6565b610c126020830184610ae6565b9392505050565b600082825260208201905092915050565b6000610c3582610c48565b9050919050565b60008115159050919050565b600073ffffffffffffffffffffffffffffffffffffffff82169050919050565b6000819050919050565b610c7b81610c2a565b8114610c8657600080fd5b50565b610c9281610c68565b8114610c9d57600080fd5b5056fea264697066735822122022ede7e188bc6f531d40feabd4220d30a633ea5b2724b2b1d66e1dbb07e2adb064736f6c63430008000033",
  "linkReferences": {},
  "deployedLinkReferences": {}
}